:100000000C9434000C9451000C9451000C94510049
:100010000C9451000C9402040C9451000C94510067
:100020000C9451000C9451000C9451000C9451000C
:100030000C9451000C9451000C9451000C945100FC
:100040000C94DB040C9451000C9451000C9451005E
:100050000C9451000C9453040C9451000C945100D6
:100060000C9451000C94510011241FBECFEFD8E026
:10007000DEBFCDBF11E0A0E0B1E0EAE6FAE002C0E9
:1000800005900D92A232B107D9F711E0A2E2B1E0DA
:1000900001C01D92A536B107E1F70E9487020C94BA
:1000A00033050C940000389A399A3A9A3B9A3C9A54
:1000B0003D9A40984198089580FF02C0429A01C03D
:1000C000429881FF02C0439A01C0439882FF02C058
:1000D000449A01C0449883FF02C0459A01C04598E4
:1000E000419A419880EA9FE00197F1F708951F93A4
:1000F000162F813011F4409A01C04098812F8295CB
:100100008F700E945C00812F0E945C001F910895F7
:10011000982F613031F4915880E0692F0E94770068
:100120000895623029F4915480E0692F0E9477008D
:100130000895CF93DF9380E060E40E947700C0E0F1
:10014000D1E081E069910E94770081E0C032D80758
:10015000C1F7DF91CF910895E62FF0E094E0EE0F24
:10016000FF1F9A95E1F7EB5CFE4FE80FF11D319709
:100170004083089587BD089588BD0895559A569A7D
:1001800083EA84BD82E085BD8AE088BD87BD84EFB7
:1001900091E028EC30E0F9013197F1F70197D9F7B8
:1001A0000E94530088E893E128EC30E0F901319790
:1001B000F1F70197D9F783E00E945C008CED95E0A0
:1001C00028EC30E0F9013197F1F70197D9F783E096
:1001D0000E945C0084EF91E028EC30E0F901319757
:1001E000F1F70197D9F783E00E945C0082E00E945A
:1001F0005C0080E068E20E94770080E061E00E949D
:10020000770084EF91E028EC30E0F9013197F1F7C5
:100210000197D9F780E062E00E94770080E068E013
:100220000E94770080E06CE00E94770080E066E04A
:100230000E94770080E060E10E94770080E060E843
:100240000E94770088E893E128EC30E0F9013197CB
:10025000F1F70197D9F70E94990080E061E00E94D0
:1002600077000895E5E4F1E080E2819391E0E536DE
:10027000F907D9F708959F92AF92BF92CF92DF927C
:10028000EF92FF920F931F93DF93CF9300D000D094
:10029000CDB7DEB7982EA62E79018A01211531053A
:1002A0004105510509F44FC0CA01B901BB242AE038
:1002B00030E040E050E00E941105C901DA01BC01C4
:1002C000CD01B394611571058105910581F76E012A
:1002D0000894C11CD11CCB0CD11C17C0C801B7019C
:1002E0002AE030E040E050E00E941105605DF60138
:1002F0006083C801B7012AE030E040E050E00E948E
:100300001105C901DA017C018D010894C108D108E9
:10031000CC16DD0619F79E012F5F3F4FEA2DF0E066
:10032000319744E0EE0FFF1F4A95E1F7E90DF11D0B
:10033000EC5BFE4FD90102C08D9181938A2F821B05
:100340008B15D0F30EC0E62FF0E024E0EE0FFF1F78
:100350002A95E1F7EB5CFE4FE80FF11D319780E342
:1003600080830F900F900F900F90CF91DF911F918E
:100370000F91FF90EF90DF90CF90BF90AF909F9044
:100380000895EF92FF921F93CF93DF93182F7A0176
:10039000C62FD0E054E0CC0FDD1F5A95E1F7CB5CBF
:1003A000DE4FFE01E80FF11D319781E08083970158
:1003B00040E050E0812F8E5F0E943B0184E6E8160A
:1003C000F10440F01B5FFE01E10FF11D3197108237
:1003D0001F5F0CC0812F8C5F9AE0E916F10448F092
:1003E000FE01E80FF11D319710821B5FC10FD11D77
:1003F00008C01D5FFE01E10FF11D31971082C80F8B
:10040000D11D219783E48883DF91CF911F91FF90C5
:10041000EF900895EF92FF921F93CF93DF93182FE1
:100420007A01C62FD0E074E0CC0FDD1F7A95E1F79A
:10043000CB5CDE4FFE01E80FF11D319783E0808336
:100440009A0140E050E0812F8E5F0E943B0184E6DC
:10045000E816F10440F01B5FFE01E10FF11D31973A
:1004600010821F5F0CC0812F8C5F9AE0E916F104A7
:1004700048F0FE01E80FF11D319710821B5FC10F9C
:10048000D11D08C01D5FFE01E10FF11D31971082E3
:10049000C80FD11D219783E48883DF91CF911F91ED
:1004A000FF90EF9008959A01E62FF0E0A4E0EE0FA0
:1004B000FF1FAA95E1F7EB5CFE4FE80FF11D3197A6
:1004C00092E0908340E050E08E5F0E943B010895EF
:1004D000CF93DF9381E061E00E948800C5E4D1E022
:1004E00081E069910E94770081E0C535D807C1F7A6
:1004F00081E062E00E94880081E069910E947700BB
:1005000081E0C536D807C1F7DF91CF9108953F92BA
:100510004F925F926F927F928F929F92AF92BF9213
:10052000CF92DF92EF92FF920F931F93CF93DF93BF
:1005300080E88093610010926100219A10928000FF
:100540001092810080918000806C80938000809167
:100550008000826080938000809181008861809318
:1005600081008091810081608093810081E991E028
:10057000909387008093860080E991E090938900B2
:100580008093880014BC85E085BD81E080936E0077
:1005900080917C00806C80937C0080917C008760DF
:1005A00080937C0080917A00876080937A008091AC
:1005B0007A00886C80937A0078940E94BE0080E56F
:1005C00087BD86EE88BD8AB183778AB9809168003D
:1005D00084608093680080916D008C6880936D00CA
:1005E0007894F8E4EF2EF4E0FF2E012D112DE0EECB
:1005F0004E2EE1E05E2E7EE1672E712C64E1862EA8
:10060000912C50E9A52E51E0B52E41E0C42ED12CFD
:1006100030E2332EC0E2DEE4E0924101F09242018A
:100620000093430110934401609141017091420194
:10063000809143019091440128EE33E040E050E086
:100640000E94F20460934101709342018093430140
:10065000909344018091410190914201A091430106
:10066000B09144012AE0B695A795979587952A956C
:10067000D1F78093410190934201A0934301B0933D
:100680004401209141013091420140914301509138
:1006900044016091390170913A0180913B01909140
:1006A0003C010E94F20460934101709342018093E7
:1006B0004301909344016091410170914201809106
:1006C00043019091440122E230E040E050E00E947A
:1006D0001105C901DA018093410190934201A09371
:1006E0004301B093440160914101709142018091B6
:1006F0004301909144012CE330E040E050E00E943F
:100700001105C901DA018093410190934201A09340
:100710004301B0934401809125019091260190936B
:1007200032018093310180913101909132014E97D5
:100730002CF470923201609231010BC08091310132
:1007400090913201815E914024F0509232014092AA
:10075000310120913101309132018091410190911C
:100760004201A0914301B0914401281B390B289DFF
:10077000C001299D900D389D900D11249093210169
:100780008093200197FF05C0D0922101C0922001E3
:1007900007C08159914024F0B0922101A09220011C
:1007A000809120019091210190938900809388008D
:1007B000E5E4F1E0319281E0E536F807D9F74091C0
:1007C00031015091320181E061E00E940A022091E2
:1007D00041013091420140914301509144018AE02E
:1007E00061E0A9010E94C1014091200150912101C5
:1007F0008AE062E00E9453020E946802CE010197E3
:10080000F1F70ACF1F920F920FB60F9211242F9378
:100810008F939F9389B1869586958372282F217037
:100820002093230190E025E0969587952A95E1F79E
:100830008093240190912301809122019817A9F0BF
:100840009091240180912301981731F08091250126
:1008500090912601019605C0809125019091260175
:100860000197909326018093250180912701909113
:1008700028010196909328018093270116BC1092BD
:100880003401109233011092300110922F018091A7
:100890002301809322019F918F912F910F900FBE82
:1008A0000F901F9018951F920F920FB60F92112460
:1008B0002F933F934F935F938F939F93AF93BF93E8
:1008C000809178009091790090932A01809329017A
:1008D0002091350130913601409137015091380116
:1008E0008091290190912A01A0E0B0E0820F931F2E
:1008F000A41FB51F8093350190933601A093370153
:10090000B093380180913D0190913E01A0913F014B
:10091000B09140010196A11DB11D80933D019093BE
:100920003E01A0933F01B093400180913D01909121
:100930003E01A0913F01B091400181389105A10590
:10094000B10538F18091350190913601A0913701C0
:10095000B091380137E0B695A795979587953A9568
:10096000D1F78093390190933A01A0933B01B09362
:100970003C0110923501109236011092370110920D
:10098000380110923D0110923E0110923F011092E9
:10099000400180917A00806480937A00BF91AF918A
:1009A0009F918F915F914F913F912F910F900FBE2B
:1009B0000F901F9018951F920F920FB60F9211244F
:1009C0008F939F938091330190913401019690937E
:1009D0003401809333019F918F910F900FBE0F9040
:1009E0001F901895629FD001739FF001829FE00DC8
:1009F000F11D649FE00DF11D929FF00D839FF00D9E
:100A0000749FF00D659FF00D9927729FB00DE11D49
:100A1000F91F639FB00DE11DF91FBD01CF01112426
:100A20000895A1E21A2EAA1BBB1BFD010DC0AA1F2F
:100A3000BB1FEE1FFF1FA217B307E407F50720F047
:100A4000A21BB30BE40BF50B661F771F881F991FC2
:100A50001A9469F760957095809590959B01AC010B
:0A0A6000BD01CF010895F894FFCF07
:100A6A000C12120C00000000040C0C0C0C1E1E00D0
:100A7A000E0A0A0A0A0A1B00080C0E0F0E0C0800BE
:020A8A009001D9
:00000001FF
